{
  "contractName": "ProductReview",
  "abi": [
    {
      "inputs": [
        {
          "internalType": "contract PRToken",
          "name": "_tokencontract",
          "type": "address"
        }
      ],
      "payable": false,
      "stateMutability": "nonpayable",
      "type": "constructor"
    },
    {
      "anonymous": false,
      "inputs": [
        {
          "indexed": false,
          "internalType": "uint256",
          "name": "productId",
          "type": "uint256"
        }
      ],
      "name": "ProductRegistered",
      "type": "event"
    },
    {
      "anonymous": false,
      "inputs": [
        {
          "indexed": false,
          "internalType": "uint256",
          "name": "productId",
          "type": "uint256"
        }
      ],
      "name": "ProductRegistrationFailed",
      "type": "event"
    },
    {
      "anonymous": false,
      "inputs": [
        {
          "indexed": false,
          "internalType": "address",
          "name": "_buyer",
          "type": "address"
        },
        {
          "indexed": false,
          "internalType": "uint256",
          "name": "_token",
          "type": "uint256"
        }
      ],
      "name": "sell",
      "type": "event"
    },
    {
      "constant": true,
      "inputs": [],
      "name": "admin",
      "outputs": [
        {
          "internalType": "address",
          "name": "",
          "type": "address"
        }
      ],
      "payable": false,
      "stateMutability": "view",
      "type": "function"
    },
    {
      "constant": true,
      "inputs": [],
      "name": "productCount",
      "outputs": [
        {
          "internalType": "uint256",
          "name": "",
          "type": "uint256"
        }
      ],
      "payable": false,
      "stateMutability": "view",
      "type": "function"
    },
    {
      "constant": true,
      "inputs": [
        {
          "internalType": "uint256",
          "name": "",
          "type": "uint256"
        }
      ],
      "name": "products",
      "outputs": [
        {
          "internalType": "uint256",
          "name": "id",
          "type": "uint256"
        },
        {
          "internalType": "string",
          "name": "name",
          "type": "string"
        },
        {
          "internalType": "string",
          "name": "description",
          "type": "string"
        },
        {
          "internalType": "uint256",
          "name": "price",
          "type": "uint256"
        },
        {
          "internalType": "uint256",
          "name": "quantity",
          "type": "uint256"
        },
        {
          "internalType": "address payable",
          "name": "productOwner",
          "type": "address"
        },
        {
          "internalType": "bool",
          "name": "isExist",
          "type": "bool"
        },
        {
          "internalType": "address",
          "name": "rater",
          "type": "address"
        },
        {
          "internalType": "uint256",
          "name": "reviewsCount",
          "type": "uint256"
        }
      ],
      "payable": false,
      "stateMutability": "view",
      "type": "function"
    },
    {
      "constant": true,
      "inputs": [],
      "name": "tokencontract",
      "outputs": [
        {
          "internalType": "contract PRToken",
          "name": "",
          "type": "address"
        }
      ],
      "payable": false,
      "stateMutability": "view",
      "type": "function"
    },
    {
      "constant": false,
      "inputs": [
        {
          "internalType": "uint256",
          "name": "skuId",
          "type": "uint256"
        },
        {
          "internalType": "string",
          "name": "name",
          "type": "string"
        },
        {
          "internalType": "string",
          "name": "description",
          "type": "string"
        },
        {
          "internalType": "uint256",
          "name": "price",
          "type": "uint256"
        },
        {
          "internalType": "uint256",
          "name": "quantity",
          "type": "uint256"
        }
      ],
      "name": "addProduct",
      "outputs": [],
      "payable": false,
      "stateMutability": "nonpayable",
      "type": "function"
    },
    {
      "constant": false,
      "inputs": [
        {
          "internalType": "uint256",
          "name": "skuId",
          "type": "uint256"
        }
      ],
      "name": "buyProduct",
      "outputs": [],
      "payable": true,
      "stateMutability": "payable",
      "type": "function"
    },
    {
      "constant": false,
      "inputs": [
        {
          "internalType": "uint256",
          "name": "skuId",
          "type": "uint256"
        },
        {
          "internalType": "string",
          "name": "review",
          "type": "string"
        }
      ],
      "name": "reviewProduct",
      "outputs": [],
      "payable": false,
      "stateMutability": "nonpayable",
      "type": "function"
    },
    {
      "constant": true,
      "inputs": [
        {
          "internalType": "uint256",
          "name": "skuId",
          "type": "uint256"
        },
        {
          "internalType": "address",
          "name": "user",
          "type": "address"
        }
      ],
      "name": "getReview",
      "outputs": [
        {
          "internalType": "string",
          "name": "review",
          "type": "string"
        }
      ],
      "payable": false,
      "stateMutability": "view",
      "type": "function"
    },
    {
      "constant": true,
      "inputs": [
        {
          "internalType": "uint256",
          "name": "skuId",
          "type": "uint256"
        },
        {
          "internalType": "uint256",
          "name": "index",
          "type": "uint256"
        }
      ],
      "name": "getAReview",
      "outputs": [
        {
          "internalType": "string",
          "name": "review",
          "type": "string"
        },
        {
          "internalType": "address",
          "name": "reviewer",
          "type": "address"
        },
        {
          "internalType": "uint256",
          "name": "upVote",
          "type": "uint256"
        },
        {
          "internalType": "uint256",
          "name": "downVote",
          "type": "uint256"
        }
      ],
      "payable": false,
      "stateMutability": "view",
      "type": "function"
    },
    {
      "constant": true,
      "inputs": [
        {
          "internalType": "uint256",
          "name": "skuId",
          "type": "uint256"
        }
      ],
      "name": "getReviewsCountOfaProduct",
      "outputs": [
        {
          "internalType": "uint256",
          "name": "",
          "type": "uint256"
        }
      ],
      "payable": false,
      "stateMutability": "view",
      "type": "function"
    },
    {
      "constant": true,
      "inputs": [
        {
          "internalType": "uint256",
          "name": "index",
          "type": "uint256"
        }
      ],
      "name": "getAProduct",
      "outputs": [
        {
          "internalType": "uint256",
          "name": "skuId",
          "type": "uint256"
        },
        {
          "internalType": "string",
          "name": "name",
          "type": "string"
        },
        {
          "internalType": "string",
          "name": "description",
          "type": "string"
        },
        {
          "internalType": "uint256",
          "name": "price",
          "type": "uint256"
        },
        {
          "internalType": "uint256",
          "name": "quantity",
          "type": "uint256"
        }
      ],
      "payable": false,
      "stateMutability": "view",
      "type": "function"
    },
    {
      "constant": false,
      "inputs": [
        {
          "internalType": "uint256",
          "name": "id",
          "type": "uint256"
        },
        {
          "internalType": "uint256",
          "name": "index",
          "type": "uint256"
        },
        {
          "internalType": "string",
          "name": "action",
          "type": "string"
        }
      ],
      "name": "vote",
      "outputs": [],
      "payable": false,
      "stateMutability": "nonpayable",
      "type": "function"
    }
  ],
  "bytecode": "0x60806040526103e860055534801561001657600080fd5b5060405161223f38038061223f8339818101604052602081101561003957600080fd5b810190808051906020019092919050505033600460006101000a81548173ffffffffffffffffffffffffffffffffffffffff021916908373ffffffffffffffffffffffffffffffffffffffff16021790555080600160006101000a81548173ffffffffffffffffffffffffffffffffffffffff021916908373ffffffffffffffffffffffffffffffffffffffff16021790555050612163806100dc6000396000f3fe6080604052600436106100a75760003560e01c80638642269e116100645780638642269e146106855780639209aba3146106b3578063a1bbfc0514610785578063e0f6ef8714610861578063f69539ae1461088c578063f851a4401461098b576100a7565b806301db5b48146100ac5780632101ff65146102295780634a689967146102fd57806370da6e97146104325780637acc0b201461048157806381cf923a1461062e575b600080fd5b3480156100b857600080fd5b50610227600480360360a08110156100cf57600080fd5b8101908080359060200190929190803590602001906401000000008111156100f657600080fd5b82018360208201111561010857600080fd5b8035906020019184600183028401116401000000008311171561012a57600080fd5b91908080601f016020809104026020016040519081016040528093929190818152602001838380828437600081840152601f19601f8201169050808301925050505050505091929192908035906020019064010000000081111561018d57600080fd5b82018360208201111561019f57600080fd5b803590602001918460018302840111640100000000831117156101c157600080fd5b91908080601f016020809104026020016040519081016040528093929190818152602001838380828437600081840152601f19601f82011690508083019250505050505050919291929080359060200190929190803590602001909291905050506109e2565b005b34801561023557600080fd5b506102826004803603604081101561024c57600080fd5b8101908080359060200190929190803573ffffffffffffffffffffffffffffffffffffffff169060200190929190505050610be6565b6040518080602001828103825283818151815260200191508051906020019080838360005b838110156102c25780820151818401526020810190506102a7565b50505050905090810190601f1680156102ef5780820380516001836020036101000a031916815260200191505b509250505060405180910390f35b34801561030957600080fd5b506103366004803603602081101561032057600080fd5b8101908080359060200190929190505050610cde565b604051808681526020018060200180602001858152602001848152602001838103835287818151815260200191508051906020019080838360005b8381101561038c578082015181840152602081019050610371565b50505050905090810190601f1680156103b95780820380516001836020036101000a031916815260200191505b50838103825286818151815260200191508051906020019080838360005b838110156103f25780820151818401526020810190506103d7565b50505050905090810190601f16801561041f5780820380516001836020036101000a031916815260200191505b5097505050505050505060405180910390f35b34801561043e57600080fd5b5061046b6004803603602081101561045557600080fd5b8101908080359060200190929190505050610f0a565b6040518082815260200191505060405180910390f35b34801561048d57600080fd5b506104ba600480360360208110156104a457600080fd5b8101908080359060200190929190505050610f29565b604051808a815260200180602001806020018981526020018881526020018773ffffffffffffffffffffffffffffffffffffffff1673ffffffffffffffffffffffffffffffffffffffff168152602001861515151581526020018573ffffffffffffffffffffffffffffffffffffffff1673ffffffffffffffffffffffffffffffffffffffff16815260200184815260200183810383528b818151815260200191508051906020019080838360005b83811015610584578082015181840152602081019050610569565b50505050905090810190601f1680156105b15780820380516001836020036101000a031916815260200191505b5083810382528a818151815260200191508051906020019080838360005b838110156105ea5780820151818401526020810190506105cf565b50505050905090810190601f1680156106175780820380516001836020036101000a031916815260200191505b509b50505050505050505050505060405180910390f35b34801561063a57600080fd5b506106436110f4565b604051808273ffffffffffffffffffffffffffffffffffffffff1673ffffffffffffffffffffffffffffffffffffffff16815260200191505060405180910390f35b6106b16004803603602081101561069b57600080fd5b810190808035906020019092919050505061111a565b005b3480156106bf57600080fd5b50610783600480360360408110156106d657600080fd5b8101908080359060200190929190803590602001906401000000008111156106fd57600080fd5b82018360208201111561070f57600080fd5b8035906020019184600183028401116401000000008311171561073157600080fd5b91908080601f016020809104026020016040519081016040528093929190818152602001838380828437600081840152601f19601f820116905080830192505050505050509192919290505050611680565b005b34801561079157600080fd5b5061085f600480360360608110156107a857600080fd5b810190808035906020019092919080359060200190929190803590602001906401000000008111156107d957600080fd5b8201836020820111156107eb57600080fd5b8035906020019184600183028401116401000000008311171561080d57600080fd5b91908080601f016020809104026020016040519081016040528093929190818152602001838380828437600081840152601f19601f820116905080830192505050505050509192919290505050611c7a565b005b34801561086d57600080fd5b50610876611ea7565b6040518082815260200191505060405180910390f35b34801561089857600080fd5b506108cf600480360360408110156108af57600080fd5b810190808035906020019092919080359060200190929190505050611ead565b60405180806020018573ffffffffffffffffffffffffffffffffffffffff1673ffffffffffffffffffffffffffffffffffffffff168152602001848152602001838152602001828103825286818151815260200191508051906020019080838360005b8381101561094d578082015181840152602081019050610932565b50505050905090810190601f16801561097a5780820380516001836020036101000a031916815260200191505b509550505050505060405180910390f35b34801561099757600080fd5b506109a0612012565b604051808273ffffffffffffffffffffffffffffffffffffffff1673ffffffffffffffffffffffffffffffffffffffff16815260200191505060405180910390f35b6000151560008087815260200190815260200160002060050160149054906101000a900460ff16151514610a7e576040517f08c379a00000000000000000000000000000000000000000000000000000000081526004018080602001828103825260158152602001807f50726f6475637420416c7265616479204164646564000000000000000000000081525060200191505060405180910390fd5b60016003600082825401925050819055508460008087815260200190815260200160002060000181905550836000808781526020019081526020016000206001019080519060200190610ad2929190612038565b50826000808781526020019081526020016000206002019080519060200190610afc929190612038565b50816000808781526020019081526020016000206003018190555080600080878152602001908152602001600020600401819055503360008087815260200190815260200160002060050160006101000a81548173ffffffffffffffffffffffffffffffffffffffff021916908373ffffffffffffffffffffffffffffffffffffffff160217905550600160008087815260200190815260200160002060050160146101000a81548160ff02191690831515021790555060028590806001815401808255809150509060018203906000526020600020016000909192909190915055505050505050565b6060600080848152602001908152602001600020600a0160008373ffffffffffffffffffffffffffffffffffffffff1673ffffffffffffffffffffffffffffffffffffffff1681526020019081526020016000206001018054600181600116156101000203166002900480601f016020809104026020016040519081016040528092919081815260200182805460018160011615610100020316600290048015610cd15780601f10610ca657610100808354040283529160200191610cd1565b820191906000526020600020905b815481529060010190602001808311610cb457829003601f168201915b5050505050905092915050565b600060608060008060008060028881548110610cf657fe5b9060005260206000200154815260200190815260200160002060000154945060008060028881548110610d2557fe5b906000526020600020015481526020019081526020016000206001018054600181600116156101000203166002900480601f016020809104026020016040519081016040528092919081815260200182805460018160011615610100020316600290048015610dd55780601f10610daa57610100808354040283529160200191610dd5565b820191906000526020600020905b815481529060010190602001808311610db857829003601f168201915b5050505050935060008060028881548110610dec57fe5b906000526020600020015481526020019081526020016000206002018054600181600116156101000203166002900480601f016020809104026020016040519081016040528092919081815260200182805460018160011615610100020316600290048015610e9c5780601f10610e7157610100808354040283529160200191610e9c565b820191906000526020600020905b815481529060010190602001808311610e7f57829003601f168201915b5050505050925060008060028881548110610eb357fe5b9060005260206000200154815260200190815260200160002060030154915060008060028881548110610ee257fe5b9060005260206000200154815260200190815260200160002060040154905091939590929450565b6000806000838152602001908152602001600020600901549050919050565b6000602052806000526040600020600091509050806000015490806001018054600181600116156101000203166002900480601f016020809104026020016040519081016040528092919081815260200182805460018160011615610100020316600290048015610fdb5780601f10610fb057610100808354040283529160200191610fdb565b820191906000526020600020905b815481529060010190602001808311610fbe57829003601f168201915b505050505090806002018054600181600116156101000203166002900480601f0160208091040260200160405190810160405280929190818152602001828054600181600116156101000203166002900480156110795780601f1061104e57610100808354040283529160200191611079565b820191906000526020600020905b81548152906001019060200180831161105c57829003601f168201915b5050505050908060030154908060040154908060050160009054906101000a900473ffffffffffffffffffffffffffffffffffffffff16908060050160149054906101000a900460ff16908060060160009054906101000a900473ffffffffffffffffffffffffffffffffffffffff16908060090154905089565b600160009054906101000a900473ffffffffffffffffffffffffffffffffffffffff1681565b6001151560008083815260200190815260200160002060050160149054906101000a900460ff161515146111b6576040517f08c379a00000000000000000000000000000000000000000000000000000000081526004018080602001828103825260118152602001807f50726f64756374204e6f7420457869737400000000000000000000000000000081525060200191505060405180910390fd5b60008060008381526020019081526020016000206004015411611241576040517f08c379a00000000000000000000000000000000000000000000000000000000081526004018080602001828103825260148152602001807f50726f64756374204f7574206f662053746f636b00000000000000000000000081525060200191505060405180910390fd5b600080828152602001908152602001600020600301543410156112cc576040517f08c379a00000000000000000000000000000000000000000000000000000000081526004018080602001828103825260198152602001807f496e73756666696369656e74204574686572207061737365640000000000000081525060200191505060405180910390fd5b6001600080838152602001908152602001600020600a0160003373ffffffffffffffffffffffffffffffffffffffff1673ffffffffffffffffffffffffffffffffffffffff16815260200190815260200160002060000160006101000a81548160ff0219169083151502179055506000808281526020019081526020016000206004016000815480929190600190039190505550600080828152602001908152602001600020600301543411156113dc573373ffffffffffffffffffffffffffffffffffffffff166108fc6000808481526020019081526020016000206003015434039081150290604051600060405180830381858888f193505050501580156113da573d6000803e3d6000fd5b505b60008082815260200190815260200160002060050160009054906101000a900473ffffffffffffffffffffffffffffffffffffffff1673ffffffffffffffffffffffffffffffffffffffff166108fc60055460008085815260200190815260200160002060030154039081150290604051600060405180830381858888f19350505050158015611470573d6000803e3d6000fd5b503373ffffffffffffffffffffffffffffffffffffffff166108fc6005549081150290604051600060405180830381858888f193505050501580156114b9573d6000803e3d6000fd5b50600160009054906101000a900473ffffffffffffffffffffffffffffffffffffffff1673ffffffffffffffffffffffffffffffffffffffff1663a9059cbb3360016040518363ffffffff1660e01b8152600401808373ffffffffffffffffffffffffffffffffffffffff1673ffffffffffffffffffffffffffffffffffffffff16815260200182815260200192505050602060405180830381600087803b15801561156457600080fd5b505af1158015611578573d6000803e3d6000fd5b505050506040513d602081101561158e57600080fd5b8101908080519060200190929190505050611611576040517f08c379a00000000000000000000000000000000000000000000000000000000081526004018080602001828103825260188152602001807f7472616e7366657272656420556e7375636365737366756c000000000000000081525060200191505060405180910390fd5b7f6c197ff5fb3c0793d2ced16096dc40420539c99ae6f83b0c62bea63dab16ac6b336001604051808373ffffffffffffffffffffffffffffffffffffffff1673ffffffffffffffffffffffffffffffffffffffff1681526020018281526020019250505060405180910390a150565b600160009054906101000a900473ffffffffffffffffffffffffffffffffffffffff1673ffffffffffffffffffffffffffffffffffffffff1663d9caf0303360016040518363ffffffff1660e01b8152600401808373ffffffffffffffffffffffffffffffffffffffff1673ffffffffffffffffffffffffffffffffffffffff16815260200182815260200192505050602060405180830381600087803b15801561172a57600080fd5b505af115801561173e573d6000803e3d6000fd5b505050506040513d602081101561175457600080fd5b81019080805190602001909291905050506117d7576040517f08c379a00000000000000000000000000000000000000000000000000000000081526004018080602001828103825260128152602001807f546f6b656e20636865636b206661696c6564000000000000000000000000000081525060200191505060405180910390fd5b6001151560008084815260200190815260200160002060050160149054906101000a900460ff16151514611873576040517f08c379a00000000000000000000000000000000000000000000000000000000081526004018080602001828103825260118152602001807f50726f64756374204e6f7420457869737400000000000000000000000000000081525060200191505060405180910390fd5b60011515600080848152602001908152602001600020600a0160003373ffffffffffffffffffffffffffffffffffffffff1673ffffffffffffffffffffffffffffffffffffffff16815260200190815260200160002060000160009054906101000a900460ff16151514611932576040517f08c379a000000000000000000000000000000000000000000000000000000000815260040180806020018281038252602b8152602001806120de602b913960400191505060405180910390fd5b60001515600080848152602001908152602001600020600a0160003373ffffffffffffffffffffffffffffffffffffffff1673ffffffffffffffffffffffffffffffffffffffff16815260200190815260200160002060000160019054906101000a900460ff161515146119f1576040517f08c379a00000000000000000000000000000000000000000000000000000000081526004018080602001828103825260268152602001806121096026913960400191505060405180910390fd5b6001600080848152602001908152602001600020600a0160003373ffffffffffffffffffffffffffffffffffffffff1673ffffffffffffffffffffffffffffffffffffffff16815260200190815260200160002060000160016101000a81548160ff02191690831515021790555080600080848152602001908152602001600020600a0160003373ffffffffffffffffffffffffffffffffffffffff1673ffffffffffffffffffffffffffffffffffffffff1681526020019081526020016000206001019080519060200190611ac8929190612038565b5042600080848152602001908152602001600020600a0160003373ffffffffffffffffffffffffffffffffffffffff1673ffffffffffffffffffffffffffffffffffffffff1681526020019081526020016000206002018190555060008060008481526020019081526020016000206008016000806000868152602001908152602001600020600901548152602001908152602001600020600101819055506000806000848152602001908152602001600020600801600080600086815260200190815260200160002060090154815260200190815260200160002060000181905550600080838152602001908152602001600020600901600081548092919060010191905055503360008084815260200190815260200160002060060160006101000a81548173ffffffffffffffffffffffffffffffffffffffff021916908373ffffffffffffffffffffffffffffffffffffffff160217905550600080838152602001908152602001600020600701819080600181540180825580915050906001820390600052602060002001600090919290919091509080519060200190611c74929190612038565b50505050565b600460009054906101000a900473ffffffffffffffffffffffffffffffffffffffff1673ffffffffffffffffffffffffffffffffffffffff163373ffffffffffffffffffffffffffffffffffffffff1614611d3d576040517f08c379a00000000000000000000000000000000000000000000000000000000081526004018080602001828103825260138152602001807f4f6e6c792061646d696e2063616e20766f74650000000000000000000000000081525060200191505060405180910390fd5b60405160200180807f5570566f74650000000000000000000000000000000000000000000000000000815250600601905060405160208183030381529060405280519060200120816040516020018082805190602001908083835b60208310611dbb5780518252602082019150602081019050602083039250611d98565b6001836020036101000a038019825116818451168082178552505050505050905001915050604051602081830303815290604052805190602001201415611e515760008060028581548110611e0c57fe5b90600052602060002001548152602001908152602001600020600801600083815260200190815260200160002060010160008154809291906001019190505550611ea2565b60008060028581548110611e6157fe5b906000526020600020015481526020019081526020016000206008016000838152602001908152602001600020600001600081548092919060010191905055505b505050565b60035481565b606060008060008060008781526020019081526020016000206007018581548110611ed457fe5b906000526020600020018054600181600116156101000203166002900480601f016020809104026020016040519081016040528092919081815260200182805460018160011615610100020316600290048015611f725780601f10611f4757610100808354040283529160200191611f72565b820191906000526020600020905b815481529060010190602001808311611f5557829003601f168201915b5050505050935060008087815260200190815260200160002060060160009054906101000a900473ffffffffffffffffffffffffffffffffffffffff1692506000808781526020019081526020016000206008016000868152602001908152602001600020600101549150600080878152602001908152602001600020600801600086815260200190815260200160002060000154905092959194509250565b600460009054906101000a900473ffffffffffffffffffffffffffffffffffffffff1681565b828054600181600116156101000203166002900490600052602060002090601f016020900481019282601f1061207957805160ff19168380011785556120a7565b828001600101855582156120a7579182015b828111156120a657825182559160200191906001019061208b565b5b5090506120b491906120b8565b5090565b6120da91905b808211156120d65760008160009055506001016120be565b5090565b9056fe596f7520617265206e6f7420656c696769626c6520746f2072657669657720746869732070726f64756374596f75206861766520416c726561647920726576696577656420746869732070726f64756374a265627a7a72315820edb6b20392ed8b479066542b30112c3f49f68c24b3d3c76f16970e8f14d6d10864736f6c634300050c0032",
  "source": "// SPDX-License-Identifier: MIT\r\npragma solidity >=0.4.0 <=0.6.0;\r\nimport \"./PRToken.sol\";\r\n\r\ncontract ProductReview {\r\n    struct Status {\r\n        bool isBuy;\r\n        bool isReview;\r\n        string reviewDescription;\r\n        uint timeStamp;\r\n    }\r\n    struct Votes{\r\n        uint downVotes;\r\n        uint upVotes;\r\n    }\r\n    struct Product {\r\n        uint id;\r\n        string name;\r\n        string description;\r\n        uint price;\r\n        uint quantity;\r\n        address payable productOwner;\r\n        bool isExist;\r\n        address rater;\r\n        string [] reviews;\r\n        mapping(uint=>Votes) userReviewVotes;\r\n        uint reviewsCount;\r\n        mapping (address=>Status) productUserReview; \r\n    }\r\n\r\n    mapping (uint=>Product) public products;\r\n\r\n    PRToken public tokencontract;\r\n    uint[] productIds;\r\n    uint public productCount;\r\n    address public admin;\r\n    uint reviewReturn = 1000;\r\n\r\n    modifier onlyAdmin() {\r\n        require(msg.sender == admin);\r\n        _;\r\n    }\r\n\r\n    constructor(PRToken _tokencontract) public{\r\n      admin = msg.sender;\r\n      tokencontract = PRToken(_tokencontract); \r\n    }\r\n    \r\n    event sell(address _buyer, uint256 _token);\r\n    event ProductRegistered(uint256 productId);\r\n    event ProductRegistrationFailed(uint256 productId);\r\n\r\n    function addProduct(uint skuId, string memory name, string memory description, uint price, uint quantity) public{\r\n        require(products[skuId].isExist == false, \"Product Already Added\");\r\n        productCount+=1;\r\n        products[skuId].id = skuId;\r\n        products[skuId].name = name;\r\n        products[skuId].description = description;\r\n        products[skuId].price = price;\r\n        products[skuId].quantity = quantity;\r\n        products[skuId].productOwner = msg.sender;\r\n        products[skuId].isExist = true;\r\n        productIds.push(skuId);\r\n        \r\n    }\r\n    \r\n    function buyProduct(uint skuId) public payable{\r\n        require(products[skuId].isExist == true, \"Product Not Exist\");\r\n        require(products[skuId].quantity > 0, \"Product Out of Stock\");\r\n        require(msg.value >= products[skuId].price , \"Insufficient Ether passed\");\r\n           \r\n        products[skuId].productUserReview[msg.sender].isBuy = true;\r\n        products[skuId].quantity--;\r\n          \r\n        if(msg.value > products[skuId].price){\r\n            msg.sender.transfer(msg.value - products[skuId].price); //extra ammount transferred\r\n        }\r\n        products[skuId].productOwner.transfer(products[skuId].price-reviewReturn); //Product price transferred to seller\"\r\n        msg.sender.transfer(reviewReturn); //1000 weis returned to buyer\"   \r\n        // token transferred to buyer after buying product\r\n        require(tokencontract.transfer(msg.sender,1),\"transferred Unsuccessful\");\r\n        emit sell (msg.sender , 1);\r\n    }\r\n    \r\n    function reviewProduct(uint skuId, string memory review) public{\r\n        require(tokencontract.reviewtoken(msg.sender,1), \"Token check failed\"); //reviewer possess token to review\r\n        require(products[skuId].isExist == true, \"Product Not Exist\");\r\n        require(products[skuId].productUserReview[msg.sender].isBuy == true, \"You are not eligible to review this product\");\r\n        require(products[skuId].productUserReview[msg.sender].isReview == false, \"You have Already reviewed this product\");\r\n             \r\n        products[skuId].productUserReview[msg.sender].isReview = true;\r\n        products[skuId].productUserReview[msg.sender].reviewDescription = review;\r\n        products[skuId].productUserReview[msg.sender].timeStamp = now;\r\n        products[skuId].userReviewVotes[products[skuId].reviewsCount].upVotes = 0;\r\n        products[skuId].userReviewVotes[products[skuId].reviewsCount].downVotes = 0;\r\n        products[skuId].reviewsCount ++;\r\n        products[skuId].rater = msg.sender;\r\n        products[skuId].reviews.push(review);\r\n    }\r\n    \r\n    function getReview(uint skuId, address user) public view returns (string memory review){\r\n       return products[skuId].productUserReview[user].reviewDescription;\r\n    }\r\n    \r\n    function getAReview(uint skuId, uint index) public view returns (string memory review, address reviewer,uint upVote,uint downVote){\r\n       review = products[skuId].reviews[index];\r\n       reviewer = products[skuId].rater;\r\n       upVote = products[skuId].userReviewVotes[index].upVotes;\r\n       downVote = products[skuId].userReviewVotes[index].downVotes;\r\n    }\r\n    function getReviewsCountOfaProduct(uint skuId) public view returns (uint){\r\n       return products[skuId].reviewsCount;\r\n    }\r\n\r\n    function getAProduct(uint index) public view returns (uint skuId, string memory name, string memory description, uint256 price, uint256 quantity){\r\n       skuId = products[productIds[index]].id;\r\n       name = products[productIds[index]].name;\r\n       description = products[productIds[index]].description;\r\n       price = products[productIds[index]].price;\r\n       quantity = products[productIds[index]].quantity;\r\n    }\r\n    function vote(uint id, uint index,string memory action) public {\r\n        require(msg.sender == admin,\"Only admin can vote\");\r\n\r\n        if(keccak256(abi.encodePacked((action))) == keccak256(abi.encodePacked((\"UpVote\")))){\r\n            products[productIds[id]].userReviewVotes[index].upVotes ++;\r\n        }else{\r\n            products[productIds[id]].userReviewVotes[index].downVotes ++;\r\n        }\r\n    }\r\n}",
  "sourcePath": "C:\\Users\\warsh\\Desktop\\Block1\\contracts\\ProductReview.sol",
  "compiler": {
    "name": "solc",
    "version": "0.5.12+commit.7709ece9.Emscripten.clang"
  },
  "schemaVersion": "3.4.7",
  "updatedAt": "2022-06-08T09:40:52.044Z",
  "networkType": "ethereum",
  "devdoc": {
    "methods": {}
  },
  "userdoc": {
    "methods": {}
  }
}